{
    "_format": "hh-sol-artifact-1",
    "contractName": "ImageNFT",
    "sourceName": "contracts/ImageNFT.sol",
    "abi": [
        {
            "inputs": [],
            "stateMutability": "nonpayable",
            "type": "constructor"
        },
        {
            "inputs": [
                {
                    "internalType": "address",
                    "name": "sender",
                    "type": "address"
                },
                {
                    "internalType": "uint256",
                    "name": "balance",
                    "type": "uint256"
                },
                {
                    "internalType": "uint256",
                    "name": "needed",
                    "type": "uint256"
                },
                {
                    "internalType": "uint256",
                    "name": "tokenId",
                    "type": "uint256"
                }
            ],
            "name": "ERC1155InsufficientBalance",
            "type": "error"
        },
        {
            "inputs": [
                {
                    "internalType": "address",
                    "name": "approver",
                    "type": "address"
                }
            ],
            "name": "ERC1155InvalidApprover",
            "type": "error"
        },
        {
            "inputs": [
                {
                    "internalType": "uint256",
                    "name": "idsLength",
                    "type": "uint256"
                },
                {
                    "internalType": "uint256",
                    "name": "valuesLength",
                    "type": "uint256"
                }
            ],
            "name": "ERC1155InvalidArrayLength",
            "type": "error"
        },
        {
            "inputs": [
                {
                    "internalType": "address",
                    "name": "operator",
                    "type": "address"
                }
            ],
            "name": "ERC1155InvalidOperator",
            "type": "error"
        },
        {
            "inputs": [
                {
                    "internalType": "address",
                    "name": "receiver",
                    "type": "address"
                }
            ],
            "name": "ERC1155InvalidReceiver",
            "type": "error"
        },
        {
            "inputs": [
                {
                    "internalType": "address",
                    "name": "sender",
                    "type": "address"
                }
            ],
            "name": "ERC1155InvalidSender",
            "type": "error"
        },
        {
            "inputs": [
                {
                    "internalType": "address",
                    "name": "operator",
                    "type": "address"
                },
                {
                    "internalType": "address",
                    "name": "owner",
                    "type": "address"
                }
            ],
            "name": "ERC1155MissingApprovalForAll",
            "type": "error"
        },
        {
            "inputs": [
                {
                    "internalType": "uint256",
                    "name": "numerator",
                    "type": "uint256"
                },
                {
                    "internalType": "uint256",
                    "name": "denominator",
                    "type": "uint256"
                }
            ],
            "name": "ERC2981InvalidDefaultRoyalty",
            "type": "error"
        },
        {
            "inputs": [
                {
                    "internalType": "address",
                    "name": "receiver",
                    "type": "address"
                }
            ],
            "name": "ERC2981InvalidDefaultRoyaltyReceiver",
            "type": "error"
        },
        {
            "inputs": [
                {
                    "internalType": "uint256",
                    "name": "tokenId",
                    "type": "uint256"
                },
                {
                    "internalType": "uint256",
                    "name": "numerator",
                    "type": "uint256"
                },
                {
                    "internalType": "uint256",
                    "name": "denominator",
                    "type": "uint256"
                }
            ],
            "name": "ERC2981InvalidTokenRoyalty",
            "type": "error"
        },
        {
            "inputs": [
                {
                    "internalType": "uint256",
                    "name": "tokenId",
                    "type": "uint256"
                },
                {
                    "internalType": "address",
                    "name": "receiver",
                    "type": "address"
                }
            ],
            "name": "ERC2981InvalidTokenRoyaltyReceiver",
            "type": "error"
        },
        {
            "anonymous": false,
            "inputs": [
                {
                    "indexed": true,
                    "internalType": "address",
                    "name": "account",
                    "type": "address"
                },
                {
                    "indexed": true,
                    "internalType": "address",
                    "name": "operator",
                    "type": "address"
                },
                {
                    "indexed": false,
                    "internalType": "bool",
                    "name": "approved",
                    "type": "bool"
                }
            ],
            "name": "ApprovalForAll",
            "type": "event"
        },
        {
            "anonymous": false,
            "inputs": [
                {
                    "indexed": true,
                    "internalType": "address",
                    "name": "operator",
                    "type": "address"
                },
                {
                    "indexed": true,
                    "internalType": "address",
                    "name": "from",
                    "type": "address"
                },
                {
                    "indexed": true,
                    "internalType": "address",
                    "name": "to",
                    "type": "address"
                },
                {
                    "indexed": false,
                    "internalType": "uint256[]",
                    "name": "ids",
                    "type": "uint256[]"
                },
                {
                    "indexed": false,
                    "internalType": "uint256[]",
                    "name": "values",
                    "type": "uint256[]"
                }
            ],
            "name": "TransferBatch",
            "type": "event"
        },
        {
            "anonymous": false,
            "inputs": [
                {
                    "indexed": true,
                    "internalType": "address",
                    "name": "operator",
                    "type": "address"
                },
                {
                    "indexed": true,
                    "internalType": "address",
                    "name": "from",
                    "type": "address"
                },
                {
                    "indexed": true,
                    "internalType": "address",
                    "name": "to",
                    "type": "address"
                },
                {
                    "indexed": false,
                    "internalType": "uint256",
                    "name": "id",
                    "type": "uint256"
                },
                {
                    "indexed": false,
                    "internalType": "uint256",
                    "name": "value",
                    "type": "uint256"
                }
            ],
            "name": "TransferSingle",
            "type": "event"
        },
        {
            "anonymous": false,
            "inputs": [
                {
                    "indexed": false,
                    "internalType": "string",
                    "name": "value",
                    "type": "string"
                },
                {
                    "indexed": true,
                    "internalType": "uint256",
                    "name": "id",
                    "type": "uint256"
                }
            ],
            "name": "URI",
            "type": "event"
        },
        {
            "inputs": [
                {
                    "internalType": "uint256",
                    "name": "tokenId",
                    "type": "uint256"
                }
            ],
            "name": "authorOf",
            "outputs": [
                {
                    "internalType": "address",
                    "name": "",
                    "type": "address"
                }
            ],
            "stateMutability": "view",
            "type": "function"
        },
        {
            "inputs": [
                {
                    "internalType": "address",
                    "name": "account",
                    "type": "address"
                },
                {
                    "internalType": "uint256",
                    "name": "id",
                    "type": "uint256"
                }
            ],
            "name": "balanceOf",
            "outputs": [
                {
                    "internalType": "uint256",
                    "name": "",
                    "type": "uint256"
                }
            ],
            "stateMutability": "view",
            "type": "function"
        },
        {
            "inputs": [
                {
                    "internalType": "address[]",
                    "name": "accounts",
                    "type": "address[]"
                },
                {
                    "internalType": "uint256[]",
                    "name": "ids",
                    "type": "uint256[]"
                }
            ],
            "name": "balanceOfBatch",
            "outputs": [
                {
                    "internalType": "uint256[]",
                    "name": "",
                    "type": "uint256[]"
                }
            ],
            "stateMutability": "view",
            "type": "function"
        },
        {
            "inputs": [
                {
                    "internalType": "address",
                    "name": "_from",
                    "type": "address"
                },
                {
                    "internalType": "uint256",
                    "name": "_tokenId",
                    "type": "uint256"
                },
                {
                    "internalType": "uint256",
                    "name": "_amount",
                    "type": "uint256"
                }
            ],
            "name": "burn",
            "outputs": [],
            "stateMutability": "nonpayable",
            "type": "function"
        },
        {
            "inputs": [
                {
                    "internalType": "uint256",
                    "name": "id",
                    "type": "uint256"
                }
            ],
            "name": "exists",
            "outputs": [
                {
                    "internalType": "bool",
                    "name": "",
                    "type": "bool"
                }
            ],
            "stateMutability": "view",
            "type": "function"
        },
        {
            "inputs": [
                {
                    "internalType": "address",
                    "name": "account",
                    "type": "address"
                },
                {
                    "internalType": "address",
                    "name": "operator",
                    "type": "address"
                }
            ],
            "name": "isApprovedForAll",
            "outputs": [
                {
                    "internalType": "bool",
                    "name": "",
                    "type": "bool"
                }
            ],
            "stateMutability": "view",
            "type": "function"
        },
        {
            "inputs": [],
            "name": "lastTokenId",
            "outputs": [
                {
                    "internalType": "uint256",
                    "name": "",
                    "type": "uint256"
                }
            ],
            "stateMutability": "view",
            "type": "function"
        },
        {
            "inputs": [
                {
                    "internalType": "string",
                    "name": "_uri",
                    "type": "string"
                },
                {
                    "internalType": "uint256",
                    "name": "amount_",
                    "type": "uint256"
                },
                {
                    "internalType": "uint96",
                    "name": "royaltyNumerator_",
                    "type": "uint96"
                },
                {
                    "internalType": "address",
                    "name": "royaltyRecipient_",
                    "type": "address"
                },
                {
                    "internalType": "bytes",
                    "name": "data_",
                    "type": "bytes"
                }
            ],
            "name": "mint",
            "outputs": [
                {
                    "internalType": "uint256",
                    "name": "",
                    "type": "uint256"
                }
            ],
            "stateMutability": "nonpayable",
            "type": "function"
        },
        {
            "inputs": [
                {
                    "internalType": "uint256",
                    "name": "tokenId",
                    "type": "uint256"
                },
                {
                    "internalType": "uint256",
                    "name": "salePrice",
                    "type": "uint256"
                }
            ],
            "name": "royaltyInfo",
            "outputs": [
                {
                    "internalType": "address",
                    "name": "",
                    "type": "address"
                },
                {
                    "internalType": "uint256",
                    "name": "",
                    "type": "uint256"
                }
            ],
            "stateMutability": "view",
            "type": "function"
        },
        {
            "inputs": [
                {
                    "internalType": "address",
                    "name": "from",
                    "type": "address"
                },
                {
                    "internalType": "address",
                    "name": "to",
                    "type": "address"
                },
                {
                    "internalType": "uint256[]",
                    "name": "ids",
                    "type": "uint256[]"
                },
                {
                    "internalType": "uint256[]",
                    "name": "values",
                    "type": "uint256[]"
                },
                {
                    "internalType": "bytes",
                    "name": "data",
                    "type": "bytes"
                }
            ],
            "name": "safeBatchTransferFrom",
            "outputs": [],
            "stateMutability": "nonpayable",
            "type": "function"
        },
        {
            "inputs": [
                {
                    "internalType": "address",
                    "name": "from",
                    "type": "address"
                },
                {
                    "internalType": "address",
                    "name": "to",
                    "type": "address"
                },
                {
                    "internalType": "uint256",
                    "name": "id",
                    "type": "uint256"
                },
                {
                    "internalType": "uint256",
                    "name": "value",
                    "type": "uint256"
                },
                {
                    "internalType": "bytes",
                    "name": "data",
                    "type": "bytes"
                }
            ],
            "name": "safeTransferFrom",
            "outputs": [],
            "stateMutability": "nonpayable",
            "type": "function"
        },
        {
            "inputs": [
                {
                    "internalType": "address",
                    "name": "operator",
                    "type": "address"
                },
                {
                    "internalType": "bool",
                    "name": "approved",
                    "type": "bool"
                }
            ],
            "name": "setApprovalForAll",
            "outputs": [],
            "stateMutability": "nonpayable",
            "type": "function"
        },
        {
            "inputs": [
                {
                    "internalType": "bytes4",
                    "name": "interfaceId",
                    "type": "bytes4"
                }
            ],
            "name": "supportsInterface",
            "outputs": [
                {
                    "internalType": "bool",
                    "name": "",
                    "type": "bool"
                }
            ],
            "stateMutability": "view",
            "type": "function"
        },
        {
            "inputs": [],
            "name": "totalSupply",
            "outputs": [
                {
                    "internalType": "uint256",
                    "name": "",
                    "type": "uint256"
                }
            ],
            "stateMutability": "view",
            "type": "function"
        },
        {
            "inputs": [
                {
                    "internalType": "uint256",
                    "name": "id",
                    "type": "uint256"
                }
            ],
            "name": "totalSupply",
            "outputs": [
                {
                    "internalType": "uint256",
                    "name": "",
                    "type": "uint256"
                }
            ],
            "stateMutability": "view",
            "type": "function"
        },
        {
            "inputs": [
                {
                    "internalType": "uint256",
                    "name": "tokenId",
                    "type": "uint256"
                }
            ],
            "name": "uri",
            "outputs": [
                {
                    "internalType": "string",
                    "name": "",
                    "type": "string"
                }
            ],
            "stateMutability": "view",
            "type": "function"
        }
    ],
    "bytecode": "0x60806040523480156200001157600080fd5b506040805160208101909152600081526200002c8162000033565b50620001b8565b6002620000418282620000ec565b5050565b634e487b7160e01b600052604160045260246000fd5b600181811c908216806200007057607f821691505b6020821081036200009157634e487b7160e01b600052602260045260246000fd5b50919050565b601f821115620000e7576000816000526020600020601f850160051c81016020861015620000c25750805b601f850160051c820191505b81811015620000e357828155600101620000ce565b5050505b505050565b81516001600160401b0381111562000108576200010862000045565b62000120816200011984546200005b565b8462000097565b602080601f8311600181146200015857600084156200013f5750858301515b600019600386901b1c1916600185901b178555620000e3565b600085815260208120601f198616915b82811015620001895788860151825594840194600190910190840162000168565b5085821015620001a85787850151600019600388901b60f8161c191681555b5050505050600190811b01905550565b611afa80620001c86000396000f3fe608060405234801561001057600080fd5b50600436106100ff5760003560e01c80634f558e7911610097578063e985e9c511610066578063e985e9c51461026f578063f242432a14610282578063f5298aca14610295578063f84ddf0b146102a857600080fd5b80634f558e79146101ef578063571733ab14610211578063a22cb4651461023c578063bd85b0391461024f57600080fd5b80632a55205a116100d35780632a55205a146101755780632eb2c2d6146101a75780634a0ee0fd146101bc5780634e1273f4146101cf57600080fd5b8062fdd58e1461010457806301ffc9a71461012a5780630e89341c1461014d57806318160ddd1461016d575b600080fd5b610117610112366004611272565b6102b1565b6040519081526020015b60405180910390f35b61013d6101383660046112b2565b6102d9565b6040519015158152602001610121565b61016061015b3660046112d6565b610302565b6040516101219190611335565b600454610117565b610188610183366004611348565b610415565b604080516001600160a01b039093168352602083019190915201610121565b6101ba6101b53660046114bc565b6104c1565b005b6101176101ca366004611566565b610528565b6101e26101dd3660046115ed565b6105ea565b60405161012191906116e9565b61013d6101fd3660046112d6565b600090815260036020526040902054151590565b61022461021f3660046112d6565b6106b7565b6040516001600160a01b039091168152602001610121565b6101ba61024a3660046116fc565b610743565b61011761025d3660046112d6565b60009081526003602052604090205490565b61013d61027d366004611738565b610752565b6101ba61029036600461176b565b610780565b6101ba6102a33660046117d0565b6107df565b61011760075481565b6000818152602081815260408083206001600160a01b03861684529091529020545b92915050565b60006102e4826108c2565b806102f357506102f382610912565b806102d357506102d382610912565b6000818152600360205260409020546060906103775760405162461bcd60e51b815260206004820152602960248201527f496d6167654e46543a2075726920717565727920666f72206e6f6e657869737460448201526832b73a103a37b5b2b760b91b60648201526084015b60405180910390fd5b6000828152600960205260409020805461039090611803565b80601f01602080910402602001604051908101604052809291908181526020018280546103bc90611803565b80156104095780601f106103de57610100808354040283529160200191610409565b820191906000526020600020905b8154815290600101906020018083116103ec57829003601f168201915b50505050509050919050565b60008281526006602090815260408083208151808301909252546001600160a01b038116808352600160a01b9091046001600160601b031692820192909252829161048a5750604080518082019091526005546001600160a01b0381168252600160a01b90046001600160601b031660208201525b6020810151600090612710906104a9906001600160601b031687611853565b6104b3919061186a565b915196919550909350505050565b336001600160a01b03861681148015906104e257506104e08682610752565b155b156105135760405163711bec9160e11b81526001600160a01b0380831660048301528716602482015260440161036e565b6105208686868686610937565b505050505050565b60008085116105795760405162461bcd60e51b815260206004820152601f60248201527f496d6167654e46543a20616d6f756e742063616e6e6f74206265207a65726f00604482015260640161036e565b600780549060006105898361188c565b909155505060075460008181526009602052604090206105a988826118ed565b506105b581858761099e565b6105c133828886610a60565b600081815260086020526040902080546001600160a01b03191633179055905095945050505050565b6060815183511461061b5781518351604051635b05999160e01b81526004810192909252602482015260440161036e565b6000835167ffffffffffffffff8111156106375761063761136a565b604051908082528060200260200182016040528015610660578160200160208202803683370190505b50905060005b84518110156106af5760208082028601015161068a906020808402870101516102b1565b82828151811061069c5761069c6119ad565b6020908102919091010152600101610666565b509392505050565b6000818152600360205260408120546107275760405162461bcd60e51b815260206004820152602c60248201527f496d6167654e46543a20617574686f7220717565727920666f72206e6f6e657860448201526b34b9ba32b73a103a37b5b2b760a11b606482015260840161036e565b506000908152600860205260409020546001600160a01b031690565b61074e338383610abd565b5050565b6001600160a01b03918216600090815260016020908152604080832093909416825291909152205460ff1690565b336001600160a01b03861681148015906107a1575061079f8682610752565b155b156107d25760405163711bec9160e11b81526001600160a01b0380831660048301528716602482015260440161036e565b6105208686868686610b53565b6001600160a01b0383163314806107fb57506107fb8333610752565b61085a5760405162461bcd60e51b815260206004820152602a60248201527f496d6167654e46543a2063616c6c6572206973206e6f74206f776e6572206e6f6044820152691c88185c1c1c9bdd995960b21b606482015260840161036e565b610865838383610be1565b6000828152600360205260409020546000036108bd57600082815260096020526040812061089291611200565b50600090815260086020908152604080832080546001600160a01b0319169055600690915281205550565b505050565b60006001600160e01b03198216636cdb3d1360e11b14806108f357506001600160e01b031982166303a24d0760e21b145b806102d357506301ffc9a760e01b6001600160e01b03198316146102d3565b60006001600160e01b0319821663152a902d60e11b14806102d357506102d3826108c2565b6001600160a01b03841661096157604051632bfa23e760e11b81526000600482015260240161036e565b6001600160a01b03851661098a57604051626a0d4560e21b81526000600482015260240161036e565b6109978585858585610c45565b5050505050565b6127106001600160601b0382168110156109e45760405163dfd1fc1b60e01b8152600481018590526001600160601b03831660248201526044810182905260640161036e565b6001600160a01b038316610a1557604051634b4f842960e11b8152600481018590526000602482015260440161036e565b506040805180820182526001600160a01b0393841681526001600160601b0392831660208083019182526000968752600690529190942093519051909116600160a01b029116179055565b6001600160a01b038416610a8a57604051632bfa23e760e11b81526000600482015260240161036e565b60408051600180825260208201869052818301908152606082018590526080820190925290610520600087848487610c45565b6001600160a01b038216610ae65760405162ced3e160e81b81526000600482015260240161036e565b6001600160a01b03838116600081815260016020908152604080832094871680845294825291829020805460ff191686151590811790915591519182527f17307eab39ab6107e8899845ad3d59bd9653f200f220920489ca2b5937696c31910160405180910390a3505050565b6001600160a01b038416610b7d57604051632bfa23e760e11b81526000600482015260240161036e565b6001600160a01b038516610ba657604051626a0d4560e21b81526000600482015260240161036e565b60408051600180825260208201869052818301908152606082018590526080820190925290610bd88787848487610c45565b50505050505050565b6001600160a01b038316610c0a57604051626a0d4560e21b81526000600482015260240161036e565b604080516001808252602082018590528183019081526060820184905260a08201909252600060808201818152919291610997918791859085905b610c5185858585610c98565b6001600160a01b038416156109975782513390600103610c8a5760208481015190840151610c83838989858589610ddf565b5050610520565b610520818787878787610f03565b610ca484848484610fec565b6001600160a01b038416610d4e576000805b8351811015610d34576000838281518110610cd357610cd36119ad565b602002602001015190508060036000878581518110610cf457610cf46119ad565b602002602001015181526020019081526020016000206000828254610d1991906119c3565b90915550610d29905081846119c3565b925050600101610cb6565b508060046000828254610d4791906119c3565b9091555050505b6001600160a01b038316610dd9576000805b8351811015610dcd576000838281518110610d7d57610d7d6119ad565b602002602001015190508060036000878581518110610d9e57610d9e6119ad565b602090810291909101810151825281019190915260400160002080549190910390559190910190600101610d60565b50600480549190910390555b50505050565b6001600160a01b0384163b156105205760405163f23a6e6160e01b81526001600160a01b0385169063f23a6e6190610e2390899089908890889088906004016119d6565b6020604051808303816000875af1925050508015610e5e575060408051601f3d908101601f19168201909252610e5b91810190611a1b565b60015b610ec7573d808015610e8c576040519150601f19603f3d011682016040523d82523d6000602084013e610e91565b606091505b508051600003610ebf57604051632bfa23e760e11b81526001600160a01b038616600482015260240161036e565b805181602001fd5b6001600160e01b0319811663f23a6e6160e01b14610bd857604051632bfa23e760e11b81526001600160a01b038616600482015260240161036e565b6001600160a01b0384163b156105205760405163bc197c8160e01b81526001600160a01b0385169063bc197c8190610f479089908990889088908890600401611a38565b6020604051808303816000875af1925050508015610f82575060408051601f3d908101601f19168201909252610f7f91810190611a1b565b60015b610fb0573d808015610e8c576040519150601f19603f3d011682016040523d82523d6000602084013e610e91565b6001600160e01b0319811663bc197c8160e01b14610bd857604051632bfa23e760e11b81526001600160a01b038616600482015260240161036e565b805182511461101b5781518151604051635b05999160e01b81526004810192909252602482015260440161036e565b3360005b8351811015611121576020818102858101820151908501909101516001600160a01b038816156110d2576000828152602081815260408083206001600160a01b038c168452909152902054818110156110ab576040516303dee4c560e01b81526001600160a01b038a16600482015260248101829052604481018390526064810184905260840161036e565b6000838152602081815260408083206001600160a01b038d16845290915290209082900390555b6001600160a01b03871615611117576000828152602081815260408083206001600160a01b038b168452909152812080548392906111119084906119c3565b90915550505b505060010161101f565b5082516001036111a25760208301516000906020840151909150856001600160a01b0316876001600160a01b0316846001600160a01b03167fc3d58168c5ae7397731d063d5bbf3d657854427343f4c083240f7aacaa2d0f628585604051611193929190918252602082015260400190565b60405180910390a45050610997565b836001600160a01b0316856001600160a01b0316826001600160a01b03167f4a39dc06d4c0dbc64b70af90fd698a233a518aa5d07e595d983b8c0526c8f7fb86866040516111f1929190611a96565b60405180910390a45050505050565b50805461120c90611803565b6000825580601f1061121c575050565b601f01602090049060005260206000209081019061123a919061123d565b50565b5b80821115611252576000815560010161123e565b5090565b80356001600160a01b038116811461126d57600080fd5b919050565b6000806040838503121561128557600080fd5b61128e83611256565b946020939093013593505050565b6001600160e01b03198116811461123a57600080fd5b6000602082840312156112c457600080fd5b81356112cf8161129c565b9392505050565b6000602082840312156112e857600080fd5b5035919050565b6000815180845260005b81811015611315576020818501810151868301820152016112f9565b506000602082860101526020601f19601f83011685010191505092915050565b6020815260006112cf60208301846112ef565b6000806040838503121561135b57600080fd5b50508035926020909101359150565b634e487b7160e01b600052604160045260246000fd5b604051601f8201601f1916810167ffffffffffffffff811182821017156113a9576113a961136a565b604052919050565b600067ffffffffffffffff8211156113cb576113cb61136a565b5060051b60200190565b600082601f8301126113e657600080fd5b813560206113fb6113f6836113b1565b611380565b8083825260208201915060208460051b87010193508684111561141d57600080fd5b602086015b848110156114395780358352918301918301611422565b509695505050505050565b600067ffffffffffffffff83111561145e5761145e61136a565b611471601f8401601f1916602001611380565b905082815283838301111561148557600080fd5b828260208301376000602084830101529392505050565b600082601f8301126114ad57600080fd5b6112cf83833560208501611444565b600080600080600060a086880312156114d457600080fd5b6114dd86611256565b94506114eb60208701611256565b9350604086013567ffffffffffffffff8082111561150857600080fd5b61151489838a016113d5565b9450606088013591508082111561152a57600080fd5b61153689838a016113d5565b9350608088013591508082111561154c57600080fd5b506115598882890161149c565b9150509295509295909350565b600080600080600060a0868803121561157e57600080fd5b853567ffffffffffffffff8082111561159657600080fd5b818801915088601f8301126115aa57600080fd5b6115b989833560208501611444565b965060208801359550604088013591506001600160601b03821682146115de57600080fd5b81945061153660608901611256565b6000806040838503121561160057600080fd5b823567ffffffffffffffff8082111561161857600080fd5b818501915085601f83011261162c57600080fd5b8135602061163c6113f6836113b1565b82815260059290921b8401810191818101908984111561165b57600080fd5b948201945b838610156116805761167186611256565b82529482019490820190611660565b9650508601359250508082111561169657600080fd5b506116a3858286016113d5565b9150509250929050565b60008151808452602080850194506020840160005b838110156116de578151875295820195908201906001016116c2565b509495945050505050565b6020815260006112cf60208301846116ad565b6000806040838503121561170f57600080fd5b61171883611256565b91506020830135801515811461172d57600080fd5b809150509250929050565b6000806040838503121561174b57600080fd5b61175483611256565b915061176260208401611256565b90509250929050565b600080600080600060a0868803121561178357600080fd5b61178c86611256565b945061179a60208701611256565b93506040860135925060608601359150608086013567ffffffffffffffff8111156117c457600080fd5b6115598882890161149c565b6000806000606084860312156117e557600080fd5b6117ee84611256565b95602085013595506040909401359392505050565b600181811c9082168061181757607f821691505b60208210810361183757634e487b7160e01b600052602260045260246000fd5b50919050565b634e487b7160e01b600052601160045260246000fd5b80820281158282048414176102d3576102d361183d565b60008261188757634e487b7160e01b600052601260045260246000fd5b500490565b60006001820161189e5761189e61183d565b5060010190565b601f8211156108bd576000816000526020600020601f850160051c810160208610156118ce5750805b601f850160051c820191505b81811015610520578281556001016118da565b815167ffffffffffffffff8111156119075761190761136a565b61191b816119158454611803565b846118a5565b602080601f83116001811461195057600084156119385750858301515b600019600386901b1c1916600185901b178555610520565b600085815260208120601f198616915b8281101561197f57888601518255948401946001909101908401611960565b508582101561199d5787850151600019600388901b60f8161c191681555b5050505050600190811b01905550565b634e487b7160e01b600052603260045260246000fd5b808201808211156102d3576102d361183d565b6001600160a01b03868116825285166020820152604081018490526060810183905260a060808201819052600090611a10908301846112ef565b979650505050505050565b600060208284031215611a2d57600080fd5b81516112cf8161129c565b6001600160a01b0386811682528516602082015260a060408201819052600090611a64908301866116ad565b8281036060840152611a7681866116ad565b90508281036080840152611a8a81856112ef565b98975050505050505050565b604081526000611aa960408301856116ad565b8281036020840152611abb81856116ad565b9594505050505056fea2646970667358221220a26e8acd79d4b460c107fc6d4ce99f843d49e828cd222a018dd8d3b801edeab064736f6c63430008180033",
    "linkReferences": {},
    "deployedLinkReferences": {}
}