{
    "_format": "hh-sol-artifact-1",
    "contractName": "ImageNFT",
    "sourceName": "contracts/ImageNFT.sol",
    "abi": [
        {
            "inputs": [],
            "stateMutability": "nonpayable",
            "type": "constructor"
        },
        {
            "inputs": [
                {
                    "internalType": "address",
                    "name": "sender",
                    "type": "address"
                },
                {
                    "internalType": "uint256",
                    "name": "balance",
                    "type": "uint256"
                },
                {
                    "internalType": "uint256",
                    "name": "needed",
                    "type": "uint256"
                },
                {
                    "internalType": "uint256",
                    "name": "tokenId",
                    "type": "uint256"
                }
            ],
            "name": "ERC1155InsufficientBalance",
            "type": "error"
        },
        {
            "inputs": [
                {
                    "internalType": "address",
                    "name": "approver",
                    "type": "address"
                }
            ],
            "name": "ERC1155InvalidApprover",
            "type": "error"
        },
        {
            "inputs": [
                {
                    "internalType": "uint256",
                    "name": "idsLength",
                    "type": "uint256"
                },
                {
                    "internalType": "uint256",
                    "name": "valuesLength",
                    "type": "uint256"
                }
            ],
            "name": "ERC1155InvalidArrayLength",
            "type": "error"
        },
        {
            "inputs": [
                {
                    "internalType": "address",
                    "name": "operator",
                    "type": "address"
                }
            ],
            "name": "ERC1155InvalidOperator",
            "type": "error"
        },
        {
            "inputs": [
                {
                    "internalType": "address",
                    "name": "receiver",
                    "type": "address"
                }
            ],
            "name": "ERC1155InvalidReceiver",
            "type": "error"
        },
        {
            "inputs": [
                {
                    "internalType": "address",
                    "name": "sender",
                    "type": "address"
                }
            ],
            "name": "ERC1155InvalidSender",
            "type": "error"
        },
        {
            "inputs": [
                {
                    "internalType": "address",
                    "name": "operator",
                    "type": "address"
                },
                {
                    "internalType": "address",
                    "name": "owner",
                    "type": "address"
                }
            ],
            "name": "ERC1155MissingApprovalForAll",
            "type": "error"
        },
        {
            "inputs": [
                {
                    "internalType": "uint256",
                    "name": "numerator",
                    "type": "uint256"
                },
                {
                    "internalType": "uint256",
                    "name": "denominator",
                    "type": "uint256"
                }
            ],
            "name": "ERC2981InvalidDefaultRoyalty",
            "type": "error"
        },
        {
            "inputs": [
                {
                    "internalType": "address",
                    "name": "receiver",
                    "type": "address"
                }
            ],
            "name": "ERC2981InvalidDefaultRoyaltyReceiver",
            "type": "error"
        },
        {
            "inputs": [
                {
                    "internalType": "uint256",
                    "name": "tokenId",
                    "type": "uint256"
                },
                {
                    "internalType": "uint256",
                    "name": "numerator",
                    "type": "uint256"
                },
                {
                    "internalType": "uint256",
                    "name": "denominator",
                    "type": "uint256"
                }
            ],
            "name": "ERC2981InvalidTokenRoyalty",
            "type": "error"
        },
        {
            "inputs": [
                {
                    "internalType": "uint256",
                    "name": "tokenId",
                    "type": "uint256"
                },
                {
                    "internalType": "address",
                    "name": "receiver",
                    "type": "address"
                }
            ],
            "name": "ERC2981InvalidTokenRoyaltyReceiver",
            "type": "error"
        },
        {
            "anonymous": false,
            "inputs": [
                {
                    "indexed": true,
                    "internalType": "address",
                    "name": "account",
                    "type": "address"
                },
                {
                    "indexed": true,
                    "internalType": "address",
                    "name": "operator",
                    "type": "address"
                },
                {
                    "indexed": false,
                    "internalType": "bool",
                    "name": "approved",
                    "type": "bool"
                }
            ],
            "name": "ApprovalForAll",
            "type": "event"
        },
        {
            "anonymous": false,
            "inputs": [
                {
                    "indexed": true,
                    "internalType": "address",
                    "name": "operator",
                    "type": "address"
                },
                {
                    "indexed": true,
                    "internalType": "address",
                    "name": "from",
                    "type": "address"
                },
                {
                    "indexed": true,
                    "internalType": "address",
                    "name": "to",
                    "type": "address"
                },
                {
                    "indexed": false,
                    "internalType": "uint256[]",
                    "name": "ids",
                    "type": "uint256[]"
                },
                {
                    "indexed": false,
                    "internalType": "uint256[]",
                    "name": "values",
                    "type": "uint256[]"
                }
            ],
            "name": "TransferBatch",
            "type": "event"
        },
        {
            "anonymous": false,
            "inputs": [
                {
                    "indexed": true,
                    "internalType": "address",
                    "name": "operator",
                    "type": "address"
                },
                {
                    "indexed": true,
                    "internalType": "address",
                    "name": "from",
                    "type": "address"
                },
                {
                    "indexed": true,
                    "internalType": "address",
                    "name": "to",
                    "type": "address"
                },
                {
                    "indexed": false,
                    "internalType": "uint256",
                    "name": "id",
                    "type": "uint256"
                },
                {
                    "indexed": false,
                    "internalType": "uint256",
                    "name": "value",
                    "type": "uint256"
                }
            ],
            "name": "TransferSingle",
            "type": "event"
        },
        {
            "anonymous": false,
            "inputs": [
                {
                    "indexed": false,
                    "internalType": "string",
                    "name": "value",
                    "type": "string"
                },
                {
                    "indexed": true,
                    "internalType": "uint256",
                    "name": "id",
                    "type": "uint256"
                }
            ],
            "name": "URI",
            "type": "event"
        },
        {
            "inputs": [
                {
                    "internalType": "address",
                    "name": "account",
                    "type": "address"
                },
                {
                    "internalType": "uint256",
                    "name": "id",
                    "type": "uint256"
                }
            ],
            "name": "balanceOf",
            "outputs": [
                {
                    "internalType": "uint256",
                    "name": "",
                    "type": "uint256"
                }
            ],
            "stateMutability": "view",
            "type": "function"
        },
        {
            "inputs": [
                {
                    "internalType": "address[]",
                    "name": "accounts",
                    "type": "address[]"
                },
                {
                    "internalType": "uint256[]",
                    "name": "ids",
                    "type": "uint256[]"
                }
            ],
            "name": "balanceOfBatch",
            "outputs": [
                {
                    "internalType": "uint256[]",
                    "name": "",
                    "type": "uint256[]"
                }
            ],
            "stateMutability": "view",
            "type": "function"
        },
        {
            "inputs": [
                {
                    "internalType": "address",
                    "name": "_from",
                    "type": "address"
                },
                {
                    "internalType": "uint256",
                    "name": "_tokenId",
                    "type": "uint256"
                },
                {
                    "internalType": "uint256",
                    "name": "_amount",
                    "type": "uint256"
                }
            ],
            "name": "burn",
            "outputs": [],
            "stateMutability": "nonpayable",
            "type": "function"
        },
        {
            "inputs": [
                {
                    "internalType": "uint256",
                    "name": "id",
                    "type": "uint256"
                }
            ],
            "name": "exists",
            "outputs": [
                {
                    "internalType": "bool",
                    "name": "",
                    "type": "bool"
                }
            ],
            "stateMutability": "view",
            "type": "function"
        },
        {
            "inputs": [
                {
                    "internalType": "address",
                    "name": "account",
                    "type": "address"
                },
                {
                    "internalType": "address",
                    "name": "operator",
                    "type": "address"
                }
            ],
            "name": "isApprovedForAll",
            "outputs": [
                {
                    "internalType": "bool",
                    "name": "",
                    "type": "bool"
                }
            ],
            "stateMutability": "view",
            "type": "function"
        },
        {
            "inputs": [],
            "name": "lastTokenId",
            "outputs": [
                {
                    "internalType": "uint256",
                    "name": "",
                    "type": "uint256"
                }
            ],
            "stateMutability": "view",
            "type": "function"
        },
        {
            "inputs": [
                {
                    "internalType": "string",
                    "name": "_uri",
                    "type": "string"
                },
                {
                    "internalType": "uint256",
                    "name": "amount_",
                    "type": "uint256"
                },
                {
                    "internalType": "uint96",
                    "name": "royaltyNumerator_",
                    "type": "uint96"
                },
                {
                    "internalType": "address",
                    "name": "royaltyRecipient_",
                    "type": "address"
                },
                {
                    "internalType": "bytes",
                    "name": "data_",
                    "type": "bytes"
                }
            ],
            "name": "mint",
            "outputs": [
                {
                    "internalType": "uint256",
                    "name": "",
                    "type": "uint256"
                }
            ],
            "stateMutability": "nonpayable",
            "type": "function"
        },
        {
            "inputs": [
                {
                    "internalType": "uint256",
                    "name": "tokenId",
                    "type": "uint256"
                },
                {
                    "internalType": "uint256",
                    "name": "salePrice",
                    "type": "uint256"
                }
            ],
            "name": "royaltyInfo",
            "outputs": [
                {
                    "internalType": "address",
                    "name": "",
                    "type": "address"
                },
                {
                    "internalType": "uint256",
                    "name": "",
                    "type": "uint256"
                }
            ],
            "stateMutability": "view",
            "type": "function"
        },
        {
            "inputs": [
                {
                    "internalType": "address",
                    "name": "from",
                    "type": "address"
                },
                {
                    "internalType": "address",
                    "name": "to",
                    "type": "address"
                },
                {
                    "internalType": "uint256[]",
                    "name": "ids",
                    "type": "uint256[]"
                },
                {
                    "internalType": "uint256[]",
                    "name": "values",
                    "type": "uint256[]"
                },
                {
                    "internalType": "bytes",
                    "name": "data",
                    "type": "bytes"
                }
            ],
            "name": "safeBatchTransferFrom",
            "outputs": [],
            "stateMutability": "nonpayable",
            "type": "function"
        },
        {
            "inputs": [
                {
                    "internalType": "address",
                    "name": "from",
                    "type": "address"
                },
                {
                    "internalType": "address",
                    "name": "to",
                    "type": "address"
                },
                {
                    "internalType": "uint256",
                    "name": "id",
                    "type": "uint256"
                },
                {
                    "internalType": "uint256",
                    "name": "value",
                    "type": "uint256"
                },
                {
                    "internalType": "bytes",
                    "name": "data",
                    "type": "bytes"
                }
            ],
            "name": "safeTransferFrom",
            "outputs": [],
            "stateMutability": "nonpayable",
            "type": "function"
        },
        {
            "inputs": [
                {
                    "internalType": "address",
                    "name": "operator",
                    "type": "address"
                },
                {
                    "internalType": "bool",
                    "name": "approved",
                    "type": "bool"
                }
            ],
            "name": "setApprovalForAll",
            "outputs": [],
            "stateMutability": "nonpayable",
            "type": "function"
        },
        {
            "inputs": [
                {
                    "internalType": "bytes4",
                    "name": "interfaceId",
                    "type": "bytes4"
                }
            ],
            "name": "supportsInterface",
            "outputs": [
                {
                    "internalType": "bool",
                    "name": "",
                    "type": "bool"
                }
            ],
            "stateMutability": "view",
            "type": "function"
        },
        {
            "inputs": [],
            "name": "totalSupply",
            "outputs": [
                {
                    "internalType": "uint256",
                    "name": "",
                    "type": "uint256"
                }
            ],
            "stateMutability": "view",
            "type": "function"
        },
        {
            "inputs": [
                {
                    "internalType": "uint256",
                    "name": "id",
                    "type": "uint256"
                }
            ],
            "name": "totalSupply",
            "outputs": [
                {
                    "internalType": "uint256",
                    "name": "",
                    "type": "uint256"
                }
            ],
            "stateMutability": "view",
            "type": "function"
        },
        {
            "inputs": [
                {
                    "internalType": "uint256",
                    "name": "tokenId",
                    "type": "uint256"
                }
            ],
            "name": "uri",
            "outputs": [
                {
                    "internalType": "string",
                    "name": "",
                    "type": "string"
                }
            ],
            "stateMutability": "view",
            "type": "function"
        }
    ],
    "bytecode": "0x60806040523480156200001157600080fd5b506040805160208101909152600081526200002c8162000033565b50620001b8565b6002620000418282620000ec565b5050565b634e487b7160e01b600052604160045260246000fd5b600181811c908216806200007057607f821691505b6020821081036200009157634e487b7160e01b600052602260045260246000fd5b50919050565b601f821115620000e7576000816000526020600020601f850160051c81016020861015620000c25750805b601f850160051c820191505b81811015620000e357828155600101620000ce565b5050505b505050565b81516001600160401b0381111562000108576200010862000045565b62000120816200011984546200005b565b8462000097565b602080601f8311600181146200015857600084156200013f5750858301515b600019600386901b1c1916600185901b178555620000e3565b600085815260208120601f198616915b82811015620001895788860151825594840194600190910190840162000168565b5085821015620001a85787850151600019600388901b60f8161c191681555b5050505050600190811b01905550565b611a0180620001c86000396000f3fe608060405234801561001057600080fd5b50600436106100f45760003560e01c80634e1273f411610097578063e985e9c511610066578063e985e9c514610239578063f242432a1461024c578063f5298aca1461025f578063f84ddf0b1461027257600080fd5b80634e1273f4146101c45780634f558e79146101e4578063a22cb46514610206578063bd85b0391461021957600080fd5b806318160ddd116100d357806318160ddd146101625780632a55205a1461016a5780632eb2c2d61461019c5780634a0ee0fd146101b157600080fd5b8062fdd58e146100f957806301ffc9a71461011f5780630e89341c14610142575b600080fd5b61010c610107366004611179565b61027b565b6040519081526020015b60405180910390f35b61013261012d3660046111b9565b6102a3565b6040519015158152602001610116565b6101556101503660046111dd565b6102cc565b604051610116919061123c565b60045461010c565b61017d61017836600461124f565b6103df565b604080516001600160a01b039093168352602083019190915201610116565b6101af6101aa3660046113c3565b61048b565b005b61010c6101bf36600461146d565b6104f2565b6101d76101d23660046114f4565b610595565b60405161011691906115f0565b6101326101f23660046111dd565b600090815260036020526040902054151590565b6101af610214366004611603565b610662565b61010c6102273660046111dd565b60009081526003602052604090205490565b61013261024736600461163f565b610671565b6101af61025a366004611672565b61069f565b6101af61026d3660046116d7565b6106fe565b61010c60075481565b6000818152602081815260408083206001600160a01b03861684529091529020545b92915050565b60006102ae826107c9565b806102bd57506102bd82610819565b8061029d575061029d82610819565b6000818152600360205260409020546060906103415760405162461bcd60e51b815260206004820152602960248201527f496d6167654e46543a2075726920717565727920666f72206e6f6e657869737460448201526832b73a103a37b5b2b760b91b60648201526084015b60405180910390fd5b6000828152600860205260409020805461035a9061170a565b80601f01602080910402602001604051908101604052809291908181526020018280546103869061170a565b80156103d35780601f106103a8576101008083540402835291602001916103d3565b820191906000526020600020905b8154815290600101906020018083116103b657829003601f168201915b50505050509050919050565b60008281526006602090815260408083208151808301909252546001600160a01b038116808352600160a01b9091046001600160601b03169282019290925282916104545750604080518082019091526005546001600160a01b0381168252600160a01b90046001600160601b031660208201525b602081015160009061271090610473906001600160601b03168761175a565b61047d9190611771565b915196919550909350505050565b336001600160a01b03861681148015906104ac57506104aa8682610671565b155b156104dd5760405163711bec9160e11b81526001600160a01b03808316600483015287166024820152604401610338565b6104ea868686868661083e565b505050505050565b60008085116105435760405162461bcd60e51b815260206004820152601f60248201527f496d6167654e46543a20616d6f756e742063616e6e6f74206265207a65726f006044820152606401610338565b6007805490600061055383611793565b9091555050600754600081815260086020526040902061057388826117f4565b5061057f8185876108a5565b61058b33828886610967565b9695505050505050565b606081518351146105c65781518351604051635b05999160e01b815260048101929092526024820152604401610338565b6000835167ffffffffffffffff8111156105e2576105e2611271565b60405190808252806020026020018201604052801561060b578160200160208202803683370190505b50905060005b845181101561065a576020808202860101516106359060208084028701015161027b565b828281518110610647576106476118b4565b6020908102919091010152600101610611565b509392505050565b61066d3383836109c4565b5050565b6001600160a01b03918216600090815260016020908152604080832093909416825291909152205460ff1690565b336001600160a01b03861681148015906106c057506106be8682610671565b155b156106f15760405163711bec9160e11b81526001600160a01b03808316600483015287166024820152604401610338565b6104ea8686868686610a5a565b6001600160a01b03831633148061071a575061071a8333610671565b6107795760405162461bcd60e51b815260206004820152602a60248201527f496d6167654e46543a2063616c6c6572206973206e6f74206f776e6572206e6f6044820152691c88185c1c1c9bdd995960b21b6064820152608401610338565b610784838383610ae8565b6000828152600360205260409020546000036107c45760008281526008602052604081206107b191611107565b5060009081526006602052604081205550565b505050565b60006001600160e01b03198216636cdb3d1360e11b14806107fa57506001600160e01b031982166303a24d0760e21b145b8061029d57506301ffc9a760e01b6001600160e01b031983161461029d565b60006001600160e01b0319821663152a902d60e11b148061029d575061029d826107c9565b6001600160a01b03841661086857604051632bfa23e760e11b815260006004820152602401610338565b6001600160a01b03851661089157604051626a0d4560e21b815260006004820152602401610338565b61089e8585858585610b4c565b5050505050565b6127106001600160601b0382168110156108eb5760405163dfd1fc1b60e01b8152600481018590526001600160601b038316602482015260448101829052606401610338565b6001600160a01b03831661091c57604051634b4f842960e11b81526004810185905260006024820152604401610338565b506040805180820182526001600160a01b0393841681526001600160601b0392831660208083019182526000968752600690529190942093519051909116600160a01b029116179055565b6001600160a01b03841661099157604051632bfa23e760e11b815260006004820152602401610338565b604080516001808252602082018690528183019081526060820185905260808201909252906104ea600087848487610b4c565b6001600160a01b0382166109ed5760405162ced3e160e81b815260006004820152602401610338565b6001600160a01b03838116600081815260016020908152604080832094871680845294825291829020805460ff191686151590811790915591519182527f17307eab39ab6107e8899845ad3d59bd9653f200f220920489ca2b5937696c31910160405180910390a3505050565b6001600160a01b038416610a8457604051632bfa23e760e11b815260006004820152602401610338565b6001600160a01b038516610aad57604051626a0d4560e21b815260006004820152602401610338565b60408051600180825260208201869052818301908152606082018590526080820190925290610adf8787848487610b4c565b50505050505050565b6001600160a01b038316610b1157604051626a0d4560e21b815260006004820152602401610338565b604080516001808252602082018590528183019081526060820184905260a0820190925260006080820181815291929161089e918791859085905b610b5885858585610b9f565b6001600160a01b0384161561089e5782513390600103610b915760208481015190840151610b8a838989858589610ce6565b50506104ea565b6104ea818787878787610e0a565b610bab84848484610ef3565b6001600160a01b038416610c55576000805b8351811015610c3b576000838281518110610bda57610bda6118b4565b602002602001015190508060036000878581518110610bfb57610bfb6118b4565b602002602001015181526020019081526020016000206000828254610c2091906118ca565b90915550610c30905081846118ca565b925050600101610bbd565b508060046000828254610c4e91906118ca565b9091555050505b6001600160a01b038316610ce0576000805b8351811015610cd4576000838281518110610c8457610c846118b4565b602002602001015190508060036000878581518110610ca557610ca56118b4565b602090810291909101810151825281019190915260400160002080549190910390559190910190600101610c67565b50600480549190910390555b50505050565b6001600160a01b0384163b156104ea5760405163f23a6e6160e01b81526001600160a01b0385169063f23a6e6190610d2a90899089908890889088906004016118dd565b6020604051808303816000875af1925050508015610d65575060408051601f3d908101601f19168201909252610d6291810190611922565b60015b610dce573d808015610d93576040519150601f19603f3d011682016040523d82523d6000602084013e610d98565b606091505b508051600003610dc657604051632bfa23e760e11b81526001600160a01b0386166004820152602401610338565b805181602001fd5b6001600160e01b0319811663f23a6e6160e01b14610adf57604051632bfa23e760e11b81526001600160a01b0386166004820152602401610338565b6001600160a01b0384163b156104ea5760405163bc197c8160e01b81526001600160a01b0385169063bc197c8190610e4e908990899088908890889060040161193f565b6020604051808303816000875af1925050508015610e89575060408051601f3d908101601f19168201909252610e8691810190611922565b60015b610eb7573d808015610d93576040519150601f19603f3d011682016040523d82523d6000602084013e610d98565b6001600160e01b0319811663bc197c8160e01b14610adf57604051632bfa23e760e11b81526001600160a01b0386166004820152602401610338565b8051825114610f225781518151604051635b05999160e01b815260048101929092526024820152604401610338565b3360005b8351811015611028576020818102858101820151908501909101516001600160a01b03881615610fd9576000828152602081815260408083206001600160a01b038c16845290915290205481811015610fb2576040516303dee4c560e01b81526001600160a01b038a166004820152602481018290526044810183905260648101849052608401610338565b6000838152602081815260408083206001600160a01b038d16845290915290209082900390555b6001600160a01b0387161561101e576000828152602081815260408083206001600160a01b038b168452909152812080548392906110189084906118ca565b90915550505b5050600101610f26565b5082516001036110a95760208301516000906020840151909150856001600160a01b0316876001600160a01b0316846001600160a01b03167fc3d58168c5ae7397731d063d5bbf3d657854427343f4c083240f7aacaa2d0f62858560405161109a929190918252602082015260400190565b60405180910390a4505061089e565b836001600160a01b0316856001600160a01b0316826001600160a01b03167f4a39dc06d4c0dbc64b70af90fd698a233a518aa5d07e595d983b8c0526c8f7fb86866040516110f892919061199d565b60405180910390a45050505050565b5080546111139061170a565b6000825580601f10611123575050565b601f0160209004906000526020600020908101906111419190611144565b50565b5b808211156111595760008155600101611145565b5090565b80356001600160a01b038116811461117457600080fd5b919050565b6000806040838503121561118c57600080fd5b6111958361115d565b946020939093013593505050565b6001600160e01b03198116811461114157600080fd5b6000602082840312156111cb57600080fd5b81356111d6816111a3565b9392505050565b6000602082840312156111ef57600080fd5b5035919050565b6000815180845260005b8181101561121c57602081850181015186830182015201611200565b506000602082860101526020601f19601f83011685010191505092915050565b6020815260006111d660208301846111f6565b6000806040838503121561126257600080fd5b50508035926020909101359150565b634e487b7160e01b600052604160045260246000fd5b604051601f8201601f1916810167ffffffffffffffff811182821017156112b0576112b0611271565b604052919050565b600067ffffffffffffffff8211156112d2576112d2611271565b5060051b60200190565b600082601f8301126112ed57600080fd5b813560206113026112fd836112b8565b611287565b8083825260208201915060208460051b87010193508684111561132457600080fd5b602086015b848110156113405780358352918301918301611329565b509695505050505050565b600067ffffffffffffffff83111561136557611365611271565b611378601f8401601f1916602001611287565b905082815283838301111561138c57600080fd5b828260208301376000602084830101529392505050565b600082601f8301126113b457600080fd5b6111d68383356020850161134b565b600080600080600060a086880312156113db57600080fd5b6113e48661115d565b94506113f26020870161115d565b9350604086013567ffffffffffffffff8082111561140f57600080fd5b61141b89838a016112dc565b9450606088013591508082111561143157600080fd5b61143d89838a016112dc565b9350608088013591508082111561145357600080fd5b50611460888289016113a3565b9150509295509295909350565b600080600080600060a0868803121561148557600080fd5b853567ffffffffffffffff8082111561149d57600080fd5b818801915088601f8301126114b157600080fd5b6114c08983356020850161134b565b965060208801359550604088013591506001600160601b03821682146114e557600080fd5b81945061143d6060890161115d565b6000806040838503121561150757600080fd5b823567ffffffffffffffff8082111561151f57600080fd5b818501915085601f83011261153357600080fd5b813560206115436112fd836112b8565b82815260059290921b8401810191818101908984111561156257600080fd5b948201945b83861015611587576115788661115d565b82529482019490820190611567565b9650508601359250508082111561159d57600080fd5b506115aa858286016112dc565b9150509250929050565b60008151808452602080850194506020840160005b838110156115e5578151875295820195908201906001016115c9565b509495945050505050565b6020815260006111d660208301846115b4565b6000806040838503121561161657600080fd5b61161f8361115d565b91506020830135801515811461163457600080fd5b809150509250929050565b6000806040838503121561165257600080fd5b61165b8361115d565b91506116696020840161115d565b90509250929050565b600080600080600060a0868803121561168a57600080fd5b6116938661115d565b94506116a16020870161115d565b93506040860135925060608601359150608086013567ffffffffffffffff8111156116cb57600080fd5b611460888289016113a3565b6000806000606084860312156116ec57600080fd5b6116f58461115d565b95602085013595506040909401359392505050565b600181811c9082168061171e57607f821691505b60208210810361173e57634e487b7160e01b600052602260045260246000fd5b50919050565b634e487b7160e01b600052601160045260246000fd5b808202811582820484141761029d5761029d611744565b60008261178e57634e487b7160e01b600052601260045260246000fd5b500490565b6000600182016117a5576117a5611744565b5060010190565b601f8211156107c4576000816000526020600020601f850160051c810160208610156117d55750805b601f850160051c820191505b818110156104ea578281556001016117e1565b815167ffffffffffffffff81111561180e5761180e611271565b6118228161181c845461170a565b846117ac565b602080601f831160018114611857576000841561183f5750858301515b600019600386901b1c1916600185901b1785556104ea565b600085815260208120601f198616915b8281101561188657888601518255948401946001909101908401611867565b50858210156118a45787850151600019600388901b60f8161c191681555b5050505050600190811b01905550565b634e487b7160e01b600052603260045260246000fd5b8082018082111561029d5761029d611744565b6001600160a01b03868116825285166020820152604081018490526060810183905260a060808201819052600090611917908301846111f6565b979650505050505050565b60006020828403121561193457600080fd5b81516111d6816111a3565b6001600160a01b0386811682528516602082015260a06040820181905260009061196b908301866115b4565b828103606084015261197d81866115b4565b9050828103608084015261199181856111f6565b98975050505050505050565b6040815260006119b060408301856115b4565b82810360208401526119c281856115b4565b9594505050505056fea2646970667358221220f05ef8e09daecb7a4004050850ba76040c11f5f328ab29345c75e0986f7852a664736f6c63430008180033",
    "linkReferences": {},
    "deployedLinkReferences": {}
}